:100000000C9481070C949E070C949E070C949E07F9
:100010000C949E070C949E070C949E070C949E07CC
:100020000C949E070C94811B0C944E1A0C941B1A72
:100030000C949E070C949E070C949E070C949E07AC
:100040000C94F00D0C949E070C949E070C949E0744
:100050000C949E077461800D00007B797C7A767920
:100060007D7D79797B756F6F757A7B7F89898DA0AE
:10007000A69FA09E9382777C7E7A7E85857F777708
:100080007871727A7E7F7E80827C787B7C7C7C7EBD
:1000900082827E817F8199AFAEABA89E8A756F7494
:1000A00073747D848379747573707680868786898E
:1000B000867F7D7F80818084868280817E8BA7B1D0
:1000C000ACA9A3937D6D6F7271768085807776750C
:1000D00072727A848887898A847E7D7E7E7F81851C
:1000E0008480807E8096ADAEA9A59B8A746C717366
:1000F000747B82847C75757472757D858887888829
:10010000827D7C7E8080818584807F7D8AA5B0AC65
:10011000A79E927E6D6E7475797E838177737474F9
:100120007479818888868784807D7D8082818384BC
:10013000827F7C7885A1AFACA59E93806F6E74772B
:10014000797D83827972737576787F8789868484D6
:10015000827E7C7F8382828382807E7B87A2AFAC1B
:10016000A59E94826F6E7476787B81837A747476A0
:1001700077777C858886848484807D7E8182818176
:1001800082827F7D889FABA9A5A0988776737575BD
:1001900076797F817B77777776757981848384859B
:1001A00085827F80818080818282807D8699A3A3E1
:1001B000A2A09B8D7E7A7A7775777D7E7A78797822
:1001C0007674787D7F80828586838182828180813A
:1001D000838280808898A0A1A2A19C9185827F7A49
:1001E00077787B7B78777876747375797A7B7F8282
:1001F0008383828484838283848382838690999C90
:100200009E9F9E99918B88827E7C7B7B7877777589
:10021000737272747474777A7C7E7F828383848530
:1002200086858587868C9496999A9A9993908E8ADA
:10023000868381807D7B7B79777574757473757621
:100240007778787B7D7D7E808182828484868F91A1
:10025000929595969491928F8D8C8A8986848381CC
:100260007E7D7B7A79787777767676767778787907
:100270007A7B7C7C7D7F8586878A8B8B8C8B8C8C34
:100280008C8D8C8A8A8A87878684848281817F7E0E
:100290007E7C7B7C7A7A7A797A79797D7C7C7F7FA7
:1002A0007F7E828380828281828181848380828139
:1002B000807E7E7E80807D827F7D817D7D807D7D54
:1002C0007D7F807B80817D80807D83827F8681842D
:1002D0008380858380838281807F807D7D7F7E7B1C
:1002E0007B7D7D7D7C7D7F7F7D7F817F847F808026
:1002F00080817E847E81817D80807F7F7E7F7F8103
:100300007F7E847B80817D817D80817C7F808080F9
:100310007E82807D827F7F817F817F7F827E7F82E0
:10032000807E80817D807F817F7F827F807C8380D3
:100330007C817E80807F81807E837F7F8181807FC2
:10034000807F817C81807F7E827F7F807B857F7DB7
:1003500080817F807D827F7D837D837E7F827D81A2
:100360007E80807F8081817E7F81837D81837E808E
:10037000807D827E7E827E807E837E7E827E7E8384
:100380007E80827D857D7F837E7D827F7E817E8172
:10039000807E80827C8180807F7F827C807F817E66
:1003A00080817F817B847F7D827D80807E80807F55
:1003B000817F7F827F7E817E7D827E7F837C7F8145
:1003C0007E80817E80817C837E7E827E817F7D8433
:1003D0007F7C837E817E7D80807F807F80807F8127
:1003E0007F7F81807E827E7F807F7F817F7D817E17
:1003F000817F7D847D7F827D847E7D847C80817C05
:10040000827F7E827D7F837C80817D837C81837AF5
:10041000837F80837B82817D827D80837B81817DE0
:10042000827D80827E81807F817D7F867A80837BD2
:10043000837E7D847B7F847A837E7C837F7D837FC4
:100440007E857A82817C837D7E817E807E7F827FB5
:100450007E80807E827C81827A82827C847E80859E
:100460007984817C847E7E827C817F7B847E7E8099
:100470007E80817C81817E817D80837C80827E8084
:100480007D7F817E7C84817C857D82817C847F7C74
:1004900083807E827F80807F807E817F7D827F7F60
:1004A0007E80817D7F7D7F827D7E847B837F7D8456
:1004B0007C81817B81817F7F7E82807E7F827E7E48
:1004C0007F827F7E8281807B81837A7E827E827F33
:1004D0007D847C80817E847C83827B82807E807D23
:1004E00081817F7E82827982807E7F7C847E7A8316
:1004F00080807E7E857D7D8080817C7F817C7F8108
:100500007D827E7E847B7F817E827D7E837F7F7EF7
:1005100080827E7F81807E7E80827C80817F827CE3
:1005200081837D808080817C80837E80817F807ECE
:100530007F807F807E80817E7F7F827F7E818081C1
:100540007F7F827F7F807F817F7E7F7F807F7F81B3
:10055000807E808080807F81807E7F8080807F7FA2
:10056000817F7F8081817E7F82817E7F81807E7E90
:10057000807F7E7E80807E7E7F7F7F7E80817F8089
:10058000807F7F7F80807E7F80807F7E80817F7F75
:1005900080807F7F7F817F7E81807F7F7F80808062
:1005A000818180818081817F818180807F7F807E49
:1005B0007F7F7F7F7E7E7F7E7E7F7F7F7F7F7F7F4F
:1005C0007F807F7F818384848586868585858483FB
:1005D000828281807F807F7E7E7F7E7E7E7E7E7E29
:1005E0007E7E7F7E7E7F7F7F7F80807F7F807F7F1C
:1005F00080807F7F7E83898A8C909192908E8D8976
:100600008583817F7C7B7B7A797A7B7C7C7D7F7F15
:1006100080818282828281818181808081817F7FCD
:1006200080807F7F7F818E9A9CA1A5A6A196908BCA
:1006300081797574747171757678787B8080808427
:10064000858685848784828281817F7D7F7E7D7D92
:100650007C7E7E7C7F7E8AA1A7A8ADAEAB9B8A877D
:100660007E736C696E6E6A6F777B7D7E8488878609
:10067000888988848284827E7C7D7E7C7B7D7E7E70
:100680007D7F80807F7E8CA7B0ACACACA794807B54
:10069000786F66656D726E717A818380848C8A85CD
:1006A000858787817D7F817E7A7A7F817E7D808349
:1006B000817E7F83827D89A5B1ABA5A7A5937C763A
:1006C000787267636D7672707A848682828B8D868B
:1006D000828487837C7B7F7F7B797C807F7B7D812D
:1006E00083807E81848088A1B0ADA6A2A1957F740D
:1006F00076746C666A7576737780878682878D8B51
:10070000858184857F7A7B7D7E7A787D807F7C7D04
:100710008284807F81818A9EABACA7A19E948379DD
:1007200077746F6968707473757B838785868A8C2C
:1007300089858384837E7B7B7D7D7A797D7F7F7EC7
:100740007F8283818180899DAAAAA7A4A29C8B7E97
:1007500079757069656B707172767E848484878A1E
:100760008B88848486837F7C7D7F7D7A7A7D7F7E83
:100770007D7E8181807E8293A2A6A6A5A6A5998B67
:10078000827D776F67676B6E6F70757D8181828503
:10079000898A8784858685817F7F81807E7C7D7F35
:1007A000807E7D7E807F818C9AA3A5A4A3A49F9444
:1007B00088807A746D67676A6E7071767D818282D7
:1007C0008487888583828383817F80818282808001
:1007D0008181807E7E7E8189939A9EA0A1A19E9632
:1007E0008E867F79716B6A6A6B6D6F73787D80829C
:1007F00083858585838281818180808081828282D8
:1008000082828281807F7F838C93979A9C9E9F9B1C
:10081000958E878079716B686767686A6F74797E77
:1008200081848789898886858482807F7F7F807F95
:100830008081828282828182888F9397999C9F9FF8
:100840009D98928C877F77716C69676666696D7217
:10085000767A7E8285878888888785848281808071
:100860007F80818284858586898E939596989999D3
:1008700097938F8A85807A74706D6C6B6B6C6F72D6
:1008800075797B7F82848585858585848382828254
:10089000828383848586868686898D9092949596B8
:1008A000989694918C88847E7874706E6B6A6A6C6A
:1008B0006E7173767A7D7F8183838484848383825F
:1008C00082828182828384848485868A8F929496B0
:1008D000999B9B9996928F8A847E78736E6B6867DA
:1008E00067686B6D7074787C808284868787878662
:1008F000868584838382838283838384888C909398
:1009000096989B9D9C9996928E88827C76716D6A52
:10091000686768696C6F72767A7E8183858687875F
:1009200087868584838382828283828384868A8F7A
:100930009295989B9D9E9C9995918C857E78736EDF
:100940006B686767686A6D7074787C7F828486875D
:100950008787868685848382828282828383848756
:100960008C909396989B9D9C9A97938F89827C7785
:10097000726D6A686767696C6F7276797D7F818353
:100980008485848484838382818182838384858631
:10099000898E9194989A9D9E9D9B98948F89827C34
:1009A00076716C6865646466686B6E73777B7E8154
:1009B00084878889898888878685848484838383DB
:1009C00084878B8F9295989B9D9C9B9894908A830B
:1009D0007D77726D6966656567696C7074787D8016
:1009E00083868889898988878685838282818181B7
:1009F0008182868B8E9195989C9D9D9B9894908BDF
:100A0000847D77726D6966656567696C7074797EDF
:100A100081848688898A8988878584838281818187
:100A2000828283878C9093979B9EA0A09E9C989394
:100A30008D867F78736E6966646465676A6E7276A8
:100A40007B7F81848687878685848381807F7E7E85
:100A50007F808183888E93979B9FA3A4A4A3A09B50
:100A6000968E878079736D6865636364666A6E725B
:100A7000777B7F828586878786858482807F7E7E5E
:100A80007D7E7F80848A8F94999EA2A5A6A6A4A02D
:100A90009C958E877F79726C6866646465676B6FFE
:100AA00072777A7E81828484848382807F7E7D7D5A
:100AB0007D7D7E7F82888D93989CA1A5A8A8A6A401
:100AC000A09B948D867F78726C6865646566686BA0
:100AD0006F73777A7D7F8182828281807F7D7C7C4B
:100AE0007B7B7C7D7F83898E93979CA1A5A6A6A501
:100AF000A39F9A948D867F79736E6B696767696B24
:100B00006D7074777A7C7E7F80807F7E7D7C7A7941
:100B10007979797A7B7E83898F94999FA3A6A8A8F7
:100B2000A7A4A09A948D868079746F6C6969696AAC
:100B30006C6F7275787B7D7F80807F7E7D7B7A781D
:100B400077767677787A7D82888E93989EA2A5A70D
:100B5000A7A6A39F9A948E88817B76726F6D6C6C2A
:100B60006D6E70737577797A7B7C7B7A7978767520
:100B7000747373737576787C80868C91969BA0A332
:100B8000A5A6A6A4A19D99948E8984807D79777667
:100B9000767677787A7B7C7D7D7D7C7B79777573C3
:100BA000716F6E6E6E6F707274777C81868B8F94AE
:100BB000989B9C9D9E9D9B9895928E8B888582800C
:100BC0007E7E7D7D7E7E7E7F7F807F7E7D7C7B794D
:100BD000777574727271717172747577797C7F83B5
:100BE00086898C8E919293939392918F8D8B898726
:100BF000858482818080807F7F80807F7F7F7F7EF1
:100C00007D7D7C7B7A7A797978787878797A7A7B45
:100C10007C7E8082838587898B8C8D8D8E8D8C8B5D
:100C20008A89878684838280807F7E7E7E7E7E7EA8
:100C30007E7E7E7E7D7D7D7D7D7D7D7C7C7C7C7CE5
:100C40007C7D7D7D7E7F8081838485878888898A7D
:100C50008A89898988868584838281807F7F7E7E58
:100C60007E7E7D7D7D7D7E7E7E7E7E7E7E7E7E7EA8
:100C70007E7E7E7F7E7F7F7E7F8080818182828379
:100C80008484848484848483838382828181808039
:100C9000807F807F7E7F7F7E7F7F7F7F7F7F7F7F64
:100CA0007F7F7F7F807F7F7F7F808080807F80804D
:100CB000818181818282828282828282818181811C
:100CC000808081807F7F7F807F7F7F7F7F7F7F7F2E
:100CD0007F7F7F7F7F7F7F7F7F7E7F80807F807F22
:100CE000808080807F808080808081818181808100
:100CF0008180808080807F7F807F7F7F7F7E7E7EFF
:100D00007F7E7E7E7F7F7F7F7F807F7F807F7F80F3
:100D100080807F807F8080807F807F7F7F80807FDA
:100D20008080808080807F7F807F80807F807F80C8
:100D30008080807F807F7F7F7F7F7F7F7F807F7FBE
:100D40007F7F7F80807F7F807F7F7F80807F7F80AD
:100D50007F7F7F7F7F7F7F807F80807F807F80809D
:100D60008080808080808080808080808080808083
:100D70008080808080808080808080808080808073
:100D80008080808080808080808080808080808063
:100D90008080808080808080808080808080808053
:100DA0008080808080808080808080808080808043
:100DB0008080808080808080808080808080808033
:100DC0008080808080808080808080808080808023
:100DD00080808080808080808080435345540800DC
:100DE0000000AF6F000000000000696433209D0028
:100DF00000004944330300000000011354454E43F2
:100E000000000049000001FFFE53007700690074F4
:100E10000063006800200054007200690061006CEB
:100E2000002000560065007200730069006F006EBC
:100E3000002000A90020004E00430048002000537D
:100E4000006F006600740077006100720065005456
:100E50005353450000001D000001FFFE4C006100DF
:100E600076006600350038002E00320030002E007B
:100E7000310030003000544954320000000F0000AF
:100E800001FFFE680065007300680061006D0000EE
:100E90004C49535456000000494E464F494E414D6F
:100EA0000700000068657368616D0000495346548F
:100EB0000E0000004C61766635382E32302E31300F
:100EC0003000434F44452400000053776974636841
:100ED00020547269616C2056657273696F6E20A927
:100EE000204E434820536F66747761726500444911
:100EF00053500C0000000100000068657368616DCC
:100F0000000011241FBECFE5D8E0DEBFCDBF10E04A
:100F1000A8E6B0E001C01D92A437B107E1F710E0E8
:100F2000A0E6B0E0E6ECF1E402C005900D92A83630
:100F3000B107D9F70E943A1D0C94E1200C940000EF
:100F4000EF92FF920F931F937B018C0120E030E022
:100F500040E05FE40E94A00A88238CF0C801B7013A
:100F600020E030E040E05FE40E9418090E94000B9E
:100F70009B01AC01205030404040504806C0C801A1
:100F8000B7010E94000B9B01AC01B901CA011F917E
:100F90000F91FF90EF900895A0E0B0E0E2EDF7E050
:100FA0000C94AA20DC012B01FA019C91923008F4E8
:100FB00039C1EB018881823008F433C1943069F47F
:100FC000843009F02FC111969C911197898198174F
:100FD00009F428C1A0E6B0E025C1843009F421C19C
:100FE0008230A9F4923009F01DC19A01AD0188E068
:100FF000EA010990AE01E90109929E018150C1F711
:10100000E201898111969C918923818308C19230E4
:1010100009F407C112962D903C901397EB018A8139
:101020009B811496AD90BD90CD90DC901797EC808D
:10103000FD800E811F819101281B390BB90137FFFB
:1010400004C066277727621B730B603271050CF0B2
:1010500061C0121613066CF537014801062E04C054
:1010600096948794779467940A94D2F721E030E0BD
:1010700040E050E004C0220F331F441F551F6A9503
:10108000D2F721503040404050402E213F21402394
:101090005123211531054105510521F021E030E0B2
:1010A00040E050E079018A01E628F728082919294B
:1010B0003CC0232BD1F1260E371E35014601062EEA
:1010C00004C096948794779467940A94D2F721E0A9
:1010D00030E040E050E004C0220F331F441F551F92
:1010E0006A95D2F721503040404050402A213B21A0
:1010F0004C215D21211531054105510521F021E0EB
:1011000030E040E050E059016A01A628B728C8281D
:10111000D9280BC0821593052CF01C01AA24BB24EE
:10112000650103C0EE24FF24870111969C91D20132
:1011300011968C91981709F445C0992339F0A801AC
:1011400097012A193B094C095D0906C0A6019501C2
:101150002E193F09400B510B57FD08C011823382F5
:10116000228224833583468357831DC081E0818397
:101170003382228288279927DC01821B930BA40BE0
:10118000B50B84839583A683B7830DC0220F331FCD
:10119000441F551F2483358346835783828193815F
:1011A0000197938382832481358146815781DA01B7
:1011B000C9010197A109B1098F5F9F4FAF4FBF438D
:1011C00028F30BC0918333822282EA0CFB1C0C1D96
:1011D0001D1DE482F5820683178383E080832481CA
:1011E00035814681578157FF1AC0C901AA2797FD4B
:1011F000A095BA2F81709070A070B07056954795E9
:1012000037952795822B932BA42BB52B848395831D
:10121000A683B78382819381019693838283DF01C2
:1012200001C0D201CD01CDB7DEB7E2E10C94C620FA
:10123000A0E2B0E0EEE1F9E00C94B62069837A8395
:101240008B839C832D833E834F835887E9E0EE2E6A
:10125000F12CEC0EFD1ECE010196B7010E94290C67
:101260008E010F5E1F4FCE010596B8010E94290C1A
:101270008A8991E089278A8BC701B801AE01475E50
:101280005F4F0E94CC070E94540BA096E6E00C949E
:10129000D220A0E2B0E0EFE4F9E00C94B62069833C
:1012A0007A838B839C832D833E834F835887F9E019
:1012B000EF2EF12CEC0EFD1ECE010196B7010E941F
:1012C000290C8E010F5E1F4FCE010596B8010E94BA
:1012D000290CC701B801AE01475E5F4F0E94CC07E1
:1012E0000E94540BA096E6E00C94D220A0E2B0E05D
:1012F000ECE7F9E00C94AA2069837A838B839C83C2
:101300002D833E834F835887CE010196BE01675FD0
:101310007F4F0E94290CCE010596BE016F5E7F4F64
:101320000E94290C9985923088F089898230C8F012
:10133000943019F4823051F404C0843029F492308E
:1013400081F480E690E0C6C0923049F420E09A85AE
:101350008A89981321E02A87CE010996BBC0823082
:1013600049F420E09A858A89981321E02A8BCE01DE
:101370004196B0C02D843E844F8458886D887E8805
:101380008F88988CEE24FF248701AA24BB24650152
:1013900040E050E060E070E0E0E0F0E0C10181702A
:1013A0009070892BE9F0E60CF71C081D191D9A01B5
:1013B000AB012A0D3B1D4C1D5D1D80E090E0A0E0BF
:1013C000B0E0E614F7040805190520F481E090E088
:1013D000A0E0B0E0BA01A901480F591F6A1F7B1FA6
:1013E000AA0CBB1CCC1CDD1C97FE08C081E090E061
:1013F000A0E0B0E0A82AB92ACA2ADB2A3196E03256
:10140000F10549F0660C771C881C991C569447948A
:1014100037942794C3CFFA85EA892B893C898B8539
:101420009C85280F391F2E5F3F4F17C0CA0181705E
:101430009070892B61F016950795F794E79480E0FA
:1014400090E0A0E0B0E8E82AF92A0A2B1B2B769559
:101450006795579547952F5F3F4F77FDE7CF0CC0B6
:10146000440F551F661F771F17FD4160EE0CFF1CD0
:10147000001F111F21503040403090E0590790E08C
:10148000690790E4790760F32B8F3C8FDB01CA0179
:101490008F779070A070B07080349105A105B10570
:1014A00061F447FD0AC0E114F1040105110529F0BA
:1014B000405C5F4F6F4F7F4F40781A8EFE1711F0E0
:1014C00081E08A8F4D8F5E8F6F8F78A383E0898F45
:1014D000CE0149960E94540BA096E2E10C94C620DE
:1014E000A8E1B0E0E6E7FAE00C94B62069837A83DD
:1014F0008B839C832D833E834F83588789E0E82E1E
:10150000F12CEC0EFD1ECE010196B7010E94290CB4
:101510008E010F5E1F4FCE010596B8010E94290C67
:101520008985823040F08989823028F0C701B8016E
:101530000E94A10C01C08FEF6896E6E00C94D220C7
:10154000A8E1B0E0E6EAFAE00C94B62069837A8379
:101550008B839C832D833E834F83588789E0E82EBD
:10156000F12CEC0EFD1ECE010196B7010E94290C54
:101570008E010F5E1F4FCE010596B8010E94290C07
:101580008985823040F08989823028F0C701B8010E
:101590000E94A10C01C08FEF6896E6E00C94D22067
:1015A000A8E1B0E0E6EDFAE00C94B62069837A8316
:1015B0008B839C832D833E834F83588789E0E82E5D
:1015C000F12CEC0EFD1ECE010196B7010E94290CF4
:1015D0008E010F5E1F4FCE010596B8010E94290CA7
:1015E0008985823040F08989823028F0C701B801AE
:1015F0000E94A10C01C081E06896E6E00C94D22024
:10160000ACE0B0E0E6E0FBE00C94BA2069837A83BA
:101610008B839C83CE010196BE016B5F7F4F0E943E
:10162000290C8D81823061F1823050F1843021F4B7
:101630008E81882351F12EC02F81388537FD20C03F
:101640006E812F3131051CF06623F9F023C08EE145
:1016500090E0821B930B29853A854B855C8504C0FD
:1016600056954795379527958A95D2F76623B1F019
:1016700050954095309521953F4F4F4F5F4F0EC08D
:1016800020E030E040E050E009C02FEF3FEF4FEFA7
:101690005FE704C020E030E040E050E8B901CA0153
:1016A0002C96E2E00C94D620DF92EF92FF920F93FB
:1016B0001F93FC01E480F58006811781D180808131
:1016C000823048F480E090E0A0E1B0E0E82AF92A16
:1016D0000A2B1B2BA5C0843009F49FC0823021F453
:1016E000EE24FF24870105C0E114F1040105110572
:1016F00019F4E0E0F0E096C0628173819FEF6238F8
:1017000079070CF05BC022E83FEF261B370B2A312C
:1017100031052CF020E030E040E050E02AC0B80174
:10172000A701022E04C076956795579547950A94B0
:10173000D2F781E090E0A0E0B0E004C0880F991FEC
:10174000AA1FBB1F2A95D2F70197A109B1098E21C3
:101750009F21A023B1230097A105B10521F081E0CD
:1017600090E0A0E0B0E09A01AB01282B392B4A2B86
:101770005B2BDA01C9018F779070A070B070803454
:101780009105A105B10539F427FF09C0205C3F4F41
:101790004F4F5F4F04C0215C3F4F4F4F5F4FE0E022
:1017A000F0E02030A0E03A07A0E04A07A0E45A07A2
:1017B00010F0E1E0F0E079018A0127C0603871059E
:1017C00064F5FB01E158FF4FD801C7018F77907096
:1017D000A070B07080349105A105B10539F4E7FE21
:1017E0000DC080E490E0A0E0B0E004C08FE390E0A2
:1017F000A0E0B0E0E80EF91E0A1F1B1F17FF05C08E
:1018000016950795F794E794319687E01695079516
:10181000F794E7948A95D1F705C0EE24FF24870159
:10182000EFEFF0E06E2F679566276795902F9F7713
:10183000D794DD24D7948E2F8695492F462B582F89
:101840005D29B701CA011F910F91FF90EF90DF90C2
:101850000895FC01DB01408151812281622F6F7765
:1018600070E0221F2227221F9381892F880F822B4D
:10187000282F30E0991F9927991F11969C93119753
:1018800021153105A9F5411551056105710511F4C1
:1018900082E037C082E89FEF13969C938E93129755
:1018A0009A01AB0167E0220F331F441F551F6A9551
:1018B000D1F783E08C930DC0220F331F441F551FB7
:1018C00012968D919C911397019713969C938E93EA
:1018D0001297203080E0380780E0480780E45807FE
:1018E00058F314962D933D934D935C931797089559
:1018F0002F3F310579F4411551056105710519F442
:1019000084E08C93089564FF03C081E08C9312C03F
:101910001C9210C02F57304013963C932E93129771
:1019200083E08C9387E0440F551F661F771F8A95CD
:10193000D1F7706414964D935D936D937C931797D4
:1019400008951F93DC01FB019C91923008F447C07D
:101950008081823008F443C0943051F411961C9178
:10196000843099F58181682F70E0611B71093FC057
:10197000843021F0923031F48230B9F181818823B2
:1019800089F12DC011961C9111978230F1F081815F
:101990001817D9F412962D913C9113978281938157
:1019A0008217930794F028173907BCF014968D918D
:1019B0009D910D90BC91A02D248135814681578148
:1019C000281739074A075B0718F4112341F00AC0AA
:1019D00082179307A407B50740F4112319F061E0BB
:1019E00070E005C06FEF7FEF02C060E070E0CB01F8
:1019F0001F910895DF93CF93CDB7DEB7A7E2B0E094
:101A0000E7E2F0E080818F778C93A7E2B0E0E7E235
:101A1000F0E0808180648C93A7E2B0E0E7E2F0E040
:101A200080818F7D8C93A6E2B0E0E6E2F0E08081D9
:101A30008F7D8C93A6E2B0E0E6E2F0E080818E7FBD
:101A40008C93A6E2B0E0E6E2F0E0808182608C93C5
:101A5000A6E2B0E0E6E2F0E0808184608C93A6E24A
:101A6000B0E0E6E2F0E0808180688C93CF91DF9176
:101A70000895DF93CF9300D00F92CDB7DEB78B835D
:101A80001A8219828B81803270F5A7E2B0E0E7E21A
:101A9000F0E08081807E8C93A7E2B0E0E7E2F0E0A6
:101AA00090818B81892B8C93A6E2B0E0E6E2F0E096
:101AB000808180648C93E6E2F0E0808182958F7073
:101AC000882F90E0817090700097A9F3A6E2B0E0B3
:101AD000E6E2F0E0808180618C93E4E2F0E08081D6
:101AE00091819A83898389819A810F900F900F90B9
:101AF000CF91DF910895DF93CF930F92CDB7DEB7EB
:101B0000898389818032B0F4A7E2B0E0E7E2F0E0B7
:101B10008081807E8C93A7E2B0E0E7E2F0E09081E4
:101B20008981892B8C93A6E2B0E0E6E2F0E0808127
:101B300080648C930F90CF91DF910895DF93CF93C2
:101B4000CDB7DEB7E4E2F0E080819181CF91DF9103
:101B50000895DF93CF93CDB7DEB7A6E2B0E0E6E21B
:101B6000F0E0808188608C93A6E2B0E0E6E2F0E0ED
:101B7000808180628C93A0E5B0E0E0E5F0E08081B8
:101B80008F7E8C93A0E5B0E0E0E5F0E080818F7D72
:101B90008C93A0E5B0E0E0E5F0E080818F7B8C9352
:101BA000A0E5B0E0E0E5F0E0808180688C93CF9123
:101BB000DF910895DF93CF9300D0CDB7DEB79A833E
:101BC000898389819A81009731F089819A819093E4
:101BD0006900809368000F900F90CF91DF91089576
:101BE0001F920F920FB60F9211242F933F934F9392
:101BF0005F936F937F938F939F93AF93BF93EF9375
:101C0000FF93DF93CF93CDB7DEB7809168009091BB
:101C10006900009729F0E0916800F091690009954A
:101C2000CF91DF91FF91EF91BF91AF919F918F91F4
:101C30007F916F915F914F913F912F910F900FBEC8
:101C40000F901F901895DF93CF93CDB7DEB7EAE3DF
:101C5000F0E080EE8083E7E3F0E08FEF8083E4E361
:101C6000F0E08FEF8083E1E3F0E08FEF8083EBE340
:101C7000F0E01082E8E3F0E01082E5E3F0E083E0DA
:101C80008083E2E3F0E08FEF8083CF91DF910895CE
:101C9000DF93CF93CDB7DEB72D970FB6F894DEBFA5
:101CA0000FBECDBF89836A834B838981282F30E0A3
:101CB0003D872C878C859D858130910509F44FC027
:101CC0002C853D85223031052CF48C859D8500972F
:101CD00071F0EBC02C853D852230310509F477C0C9
:101CE0008C859D858330910509F4A9C0DEC08B8168
:101CF000282F30E03B872A878A859B850097D1F083
:101D00002A853B852130310509F0CFC0ABE3B0E037
:101D1000EBE3F0E08081482F8A81282F30E081E0DA
:101D200090E0022E02C0880F991F0A94E2F7842BDC
:101D30008C93BBC0ABE3B0E0EBE3F0E08081482FD5
:101D40008A81282F30E081E090E0022E02C0880FC7
:101D5000991F0A94E2F7809584238C93A6C08B8107
:101D6000282F30E039872887888599850097D1F01A
:101D7000288539852130310509F097C0A8E3B0E006
:101D8000E8E3F0E08081482F8A81282F30E081E06D
:101D900090E0022E02C0880F991F0A94E2F7842B6C
:101DA0008C9383C0A8E3B0E0E8E3F0E08081482FA3
:101DB0008A81282F30E081E090E0022E02C0880F57
:101DC000991F0A94E2F7809584238C936EC08B81CF
:101DD000282F30E03F832E838E819F810097D1F0A2
:101DE0002E813F812130310509F05FC0A5E3B0E0CD
:101DF000E5E3F0E08081482F8A81282F30E081E000
:101E000090E0022E02C0880F991F0A94E2F7842BFB
:101E10008C934BC0A5E3B0E0E5E3F0E08081482F70
:101E20008A81282F30E081E090E0022E02C0880FE6
:101E3000991F0A94E2F7809584238C9336C08B8196
:101E4000282F30E03D832C838C819D810097C9F041
:101E50002C813D812130310541F5A2E3B0E0E2E380
:101E6000F0E08081482F8A81282F30E081E090E0E7
:101E7000022E02C0880F991F0A94E2F7842B8C93DC
:101E800014C0A2E3B0E0E2E3F0E08081482F8A8151
:101E9000282F30E081E090E0022E02C0880F991FC9
:101EA0000A94E2F7809584238C932D960FB6F894CC
:101EB000DEBF0FBECDBFCF91DF910895DF93CF93EB
:101EC000CDB7DEB72D970FB6F894DEBF0FBECDBFEE
:101ED00089836A834B838981282F30E03D872C8753
:101EE0008C859D858130910509F44FC02C853D85F9
:101EF000223031052CF48C859D85009771F0EBC064
:101F00002C853D852230310509F477C08C859D856F
:101F10008330910509F4A9C0DEC08B81282F30E001
:101F20003B872A878A859B850097D1F02A853B8548
:101F30002130310509F0CFC0AAE3B0E0EAE3F0E0D8
:101F40008081482F8A81282F30E081E090E0022EA6
:101F500002C0880F991F0A94E2F7842B8C93BBC0B0
:101F6000AAE3B0E0EAE3F0E08081482F8A81282FDD
:101F700030E081E090E0022E02C0880F991F0A94A1
:101F8000E2F7809584238C93A6C08B81282F30E0C4
:101F900039872887888599850097D1F028853985E4
:101FA0002130310509F097C0A7E3B0E0E7E3F0E0A6
:101FB0008081482F8A81282F30E081E090E0022E36
:101FC00002C0880F991F0A94E2F7842B8C9383C078
:101FD000A7E3B0E0E7E3F0E08081482F8A81282F73
:101FE00030E081E090E0022E02C0880F991F0A9431
:101FF000E2F7809584238C936EC08B81282F30E08C
:102000003F832E838E819F810097D1F02E813F8167
:102010002130310509F05FC0A4E3B0E0E4E3F0E073
:102020008081482F8A81282F30E081E090E0022EC5
:1020300002C0880F991F0A94E2F7842B8C934BC03F
:10204000A4E3B0E0E4E3F0E08081482F8A81282F08
:1020500030E081E090E0022E02C0880F991F0A94C0
:10206000E2F7809584238C9336C08B81282F30E053
:102070003D832C838C819D810097C9F02C813D810B
:102080002130310541F5A1E3B0E0E1E3F0E08081EA
:10209000482F8A81282F30E081E090E0022E02C094
:1020A000880F991F0A94E2F7842B8C9314C0A1E344
:1020B000B0E0E1E3F0E08081482F8A81282F30E012
:1020C00081E090E0022E02C0880F991F0A94E2F787
:1020D000809584238C932D960FB6F894DEBF0FBEA7
:1020E000CDBFCF91DF910895DF93CF9300D000D083
:1020F0000F92CDB7DEB78A836B8319828A81282F2E
:1021000030E03D832C834C815D814130510541F1AC
:102110008C819D818230910534F42C813D81211583
:10212000310561F052C04C815D814230510551F161
:102130008C819D8183309105B9F147C0E9E3F0E0DE
:102140008081282F30E08B81882F90E0A90102C088
:10215000559547958A95E2F7CA018170898335C004
:10216000E6E3F0E08081282F30E08B81882F90E03B
:10217000A90102C0559547958A95E2F7CA01817079
:10218000898323C0E3E3F0E08081282F30E08B8156
:10219000882F90E0A90102C0559547958A95E2F7EE
:1021A000CA018170898311C0E0E3F0E08081282FAB
:1021B00030E08B81882F90E0A90102C055954795AA
:1021C0008A95E2F7CA018170898389810F900F9007
:1021D0000F900F900F90CF91DF910895DF93CF93E1
:1021E00000D000D0CDB7DEB789836A838981282FDC
:1021F00030E03C832B838B819C8181309105D1F031
:102200002B813C81223031052CF48B819C810097FD
:1022100061F01EC02B813C812230310581F08B8121
:102220009C818330910581F013C0EBE3F0E08A815B
:1022300080830EC0E8E3F0E08A81808309C0E5E393
:10224000F0E08A81808304C0E2E3F0E08A81808349
:102250000F900F900F900F90CF91DF910895DF9323
:10226000CF9300D000D0CDB7DEB789836A83898150
:10227000282F30E03C832B838B819C81813091051A
:10228000D1F02B813C81223031052CF48B819C8153
:10229000009761F01EC02B813C812230310581F016
:1022A0008B819C818330910581F013C0EAE3F0E0DB
:1022B0008A8180830EC0E7E3F0E08A81808309C0D1
:1022C000E4E3F0E08A81808304C0E1E3F0E08A8106
:1022D00080830F900F900F900F90CF91DF91089512
:1022E000DF93CF93CDB7DEB762970FB6F894DEBF1A
:1022F0000FBECDBF998B888B6A8B88899989892F6E
:10230000992780658F870E94031C8F850E94591C26
:1023100088890E94CB1C8A890E94CB1C0E94251DA3
:1023200080E090E0A0E2B1E48B879C87AD87BE8718
:102330006B857C858D859E8520E030E04AEF54E4F6
:102340000E947609DC01CB018F839887A987BA8721
:102350006F81788589859A8520E030E040E85FE3E9
:102360000E94D00A88232CF481E090E09E838D8324
:102370003FC06F81788589859A8520E03FEF4FE7E0
:1023800057E40E94700A18164CF56B857C858D8584
:102390009E8520E030E040E251E40E947609DC01B5
:1023A000CB01BC01CD010E94A007DC01CB019E83C3
:1023B0008D830FC088EC90E09C838B838B819C8104
:1023C0000197F1F79C838B838D819E8101979E837A
:1023D0008D838D819E81009769F714C06F81788508
:1023E00089859A850E94A007DC01CB019E838D839D
:1023F0008D819E819A83898389819A810197F1F7E2
:102400009A83898362960FB6F894DEBF0FBECDBF64
:10241000CF91DF910895DF93CF93CDB7DEB7629769
:102420000FB6F894DEBF0FBECDBF998B888B6A8B39
:1024300080E58F870E94031C8F850E94591C888924
:102440009989892F99270E94CB1C88890E94CB1CCF
:102450008A890E94CB1C0E94251D80E090E0A0E2AA
:10246000B1E48B879C87AD87BE876B857C858D8526
:102470009E8520E030E04AEF54E40E947609DC01BA
:10248000CB018F839887A987BA876F8178858985E3
:102490009A8520E030E040E85FE30E94D00A88237C
:1024A0002CF481E090E09E838D833FC06F8178851E
:1024B00089859A8520E03FEF4FE757E40E94700A34
:1024C00018164CF56B857C858D859E8520E030E067
:1024D00040E251E40E947609DC01CB01BC01CD0150
:1024E0000E94A007DC01CB019E838D830FC088EC86
:1024F00090E09C838B838B819C810197F1F79C8377
:102500008B838D819E8101979E838D838D819E819A
:10251000009769F714C06F81788589859A850E9434
:10252000A007DC01CB019E838D838D819E819A83E0
:10253000898389819A810197F1F79A8389836296C9
:102540000FB6F894DEBF0FBECDBFCF91DF910895D7
:10255000DF93CF9300D000D0CDB7DEB79C838B83C1
:102560008B819C81892F9927806589830E94031C18
:1025700089810E94591C8B810E94CB1C0E942E1CB9
:1025800089810E94921CCE0102960E94F51C0E9435
:10259000251D8A810F900F900F900F90CF91DF91A2
:1025A0000895DF93CF9300D000D0CDB7DEB79C83E2
:1025B0008B8380E589830E94031C89810E94591CBA
:1025C0008B819C81892F99270E94CB1C8B810E9433
:1025D000CB1C0E942E1C89810E94921CCE01029667
:1025E0000E94F51C0E94251D8A810F900F900F906C
:1025F0000F90CF91DF910895DF93CF93CDB7DEB7E2
:10260000AFE5B0E0EFE5F0E0808180688C93CF919A
:10261000DF910895DF93CF93CDB7DEB7AFE5B0E09C
:10262000EFE5F0E080818F778C93CF91DF91089573
:10263000DF93CF93CDB7DEB72F970FB6F894DEBFF9
:102640000FBECDBF8F8782E062E040E00E94480E5F
:1026500082E063E040E00E94480E81E06F850E94C6
:10266000EE1082E064E041E00E94480E80E090E0DD
:10267000A0E0B0E48B879C87AD87BE876B857C85A7
:102680008D859E8520E030E04AEF54E40E94760973
:10269000DC01CB018F839887A987BA876F81788502
:1026A00089859A8520E030E040E85FE30E94D00A07
:1026B00088232CF481E090E09E838D833FC06F815E
:1026C000788589859A8520E03FEF4FE757E40E949F
:1026D000700A18164CF56B857C858D859E8520E0EB
:1026E00030E040E251E40E947609DC01CB01BC01FC
:1026F000CD010E94A007DC01CB019E838D830FC01A
:1027000088EC90E09C838B838B819C810197F1F70F
:102710009C838B838D819E8101979E838D838D8188
:102720009E81009769F714C06F81788589859A85A5
:102730000E94A007DC01CB019E838D838D819E8149
:102740009A83898389819A810197F1F79A83898392
:1027500082E064E040E00E94480E2F960FB6F894A5
:10276000DEBF0FBECDBFCF91DF910895DF93CF9332
:10277000CDB7DEB72F970FB6F894DEBF0FBECDBF33
:102780008F8782E062E041E00E94480E82E063E0D1
:1027900040E00E94480E81E06F850E94EE1082E0CA
:1027A00064E041E00E94480E80E090E0A0E0B0E4E8
:1027B0008B879C87AD87BE876B857C858D859E8545
:1027C00020E030E04AEF54E40E947609DC01CB01BE
:1027D0008F839887A987BA876F81788589859A853D
:1027E00020E030E040E85FE30E94D00A88232CF428
:1027F00081E090E09E838D833FC06F8178858985DD
:102800009A8520E03FEF4FE757E40E94700A1816C0
:102810004CF56B857C858D859E8520E030E040E21F
:1028200051E40E947609DC01CB01BC01CD010E947C
:10283000A007DC01CB019E838D830FC088EC90E064
:102840009C838B838B819C810197F1F79C838B8385
:102850008D819E8101979E838D838D819E810097BE
:1028600069F714C06F81788589859A850E94A007D1
:10287000DC01CB019E838D838D819E819A83898328
:1028800089819A810197F1F79A83898382E064E0D4
:1028900040E00E94480E2F960FB6F894DEBF0FBEA0
:1028A000CDBFCF91DF910895DF93CF93CDB7DEB742
:1028B000E8970FB6F894DEBF0FBECDBF80E090E082
:1028C000A0EFB1E48DAB9EABAFABB8AF6DA97EA965
:1028D0008FA998AD20E030E04AEF54E40E947609D9
:1028E000DC01CB0189AB9AABABABBCAB69A97AA9D4
:1028F0008BA99CA920E030E040E85FE30E94D00A69
:1029000088232CF481E090E098AB8FA73FC069A9A1
:102910007AA98BA99CA920E03FEF4FE757E40E94DA
:10292000700A18164CF56DA97EA98FA998AD20E004
:1029300030E040E251E40E947609DC01CB01BC01A9
:10294000CD010E94A007DC01CB0198AB8FA70FC07F
:1029500088EC90E09EA78DA78DA59EA50197F1F725
:102960009EA78DA78FA598A9019798AB8FA78FA534
:1029700098A9009769F714C069A97AA98BA99CA99D
:102980000E94A007DC01CB0198AB8FA78FA598A967
:102990009CA78BA78BA59CA50197F1F79CA78BA75C
:1029A00088E30E94181380E090E0A0E8BFE38FA3C3
:1029B00098A7A9A7BAA76FA178A589A59AA520E08D
:1029C00030E04AEF54E40E947609DC01CB018BA38E
:1029D0009CA3ADA3BEA36BA17CA18DA19EA120E071
:1029E00030E040E85FE30E94D00A88232CF481E0C5
:1029F00090E09AA389A33FC06BA17CA18DA19EA169
:102A000020E03FEF4FE757E40E94700A18164CF59C
:102A10006FA178A589A59AA520E030E040E251E4B5
:102A20000E947609DC01CB01BC01CD010E94A00708
:102A3000DC01CB019AA389A30FC088EC90E098A396
:102A40008F8F8F8D98A10197F1F798A38F8F89A110
:102A50009AA101979AA389A389A19AA1009769F7DE
:102A600014C06BA17CA18DA19EA10E94A007DC01D6
:102A7000CB019AA389A389A19AA19E8F8D8F8D8D59
:102A80009E8D0197F1F79E8F8D8F8FE00E94181316
:102A900080E090E0A0E8BFE3898F9A8FAB8FBC8F76
:102AA000698D7A8D8B8D9C8D20E030E04AEF54E467
:102AB0000E947609DC01CB018D8B9E8BAF8BB88F8A
:102AC0006D897E898F89988D20E030E040E85FE352
:102AD0000E94D00A88232CF481E090E09C8B8B8BA1
:102AE0003FC06D897E898F89988D20E03FEF4FE749
:102AF00057E40E94700A18164CF5698D7A8D8B8DFB
:102B00009C8D20E030E040E251E40E947609DC0137
:102B1000CB01BC01CD010E94A007DC01CB019C8B45
:102B20008B8B0FC088EC90E09A8B898B89899A896E
:102B30000197F1F79A8B898B8B899C8901979C8BE4
:102B40008B8B8B899C89009769F714C06D897E896E
:102B50008F89988D0E94A007DC01CB019C8B8B8B09
:102B60008B899C89988B8F878F8598890197F1F73E
:102B7000988B8F8781E00E94181380E090E0A0E09E
:102B8000B0E48B879C87AD87BE876B857C858D8500
:102B90009E8520E030E04AEF54E40E947609DC0193
:102BA000CB018F839887A987BA876F8178858985BC
:102BB0009A8520E030E040E85FE30E94D00A882355
:102BC0002CF481E090E09E838D833FC06F817885F7
:102BD00089859A8520E03FEF4FE757E40E94700A0D
:102BE00018164CF56B857C858D859E8520E030E040
:102BF00040E251E40E947609DC01CB01BC01CD0129
:102C00000E94A007DC01CB019E838D830FC088EC5E
:102C100090E09C838B838B819C810197F1F79C834F
:102C20008B838D819E8101979E838D838D819E8173
:102C3000009769F714C06F81788589859A850E940D
:102C4000A007DC01CB019E838D838D819E819A83B9
:102C5000898389819A810197F1F79A83898382E038
:102C60000E941813E8960FB6F894DEBF0FBECDBFD2
:102C7000CF91DF910895DF93CF93CDB7DEB72E9735
:102C80000FB6F894DEBF0FBECDBF81E00E941813CF
:102C900080E090E0A0E0B0E48B879C87AD87BE87A2
:102CA0006B857C858D859E8520E030E04AEF54E47D
:102CB0000E947609DC01CB018F839887A987BA87A8
:102CC0006F81788589859A8520E030E040E85FE370
:102CD0000E94D00A88232CF481E090E09E838D83AB
:102CE0003FC06F81788589859A8520E03FEF4FE767
:102CF00057E40E94700A18164CF56B857C858D850B
:102D00009E8520E030E040E251E40E947609DC013B
:102D1000CB01BC01CD010E94A007DC01CB019E8349
:102D20008D830FC088EC90E09C838B838B819C818A
:102D30000197F1F79C838B838D819E8101979E8300
:102D40008D838D819E81009769F714C06F8178858E
:102D500089859A850E94A007DC01CB019E838D8323
:102D60008D819E819A83898389819A810197F1F768
:102D70009A8389832E960FB6F894DEBF0FBECDBF1F
:102D8000CF91DF910895DF93CF9300D000D0CDB7DE
:102D9000DEB79C838B831A8219820FC029813A8106
:102DA0008B819C81FC01E20FF31F80810E94B6138E
:102DB00089819A8101969A83898329813A818B81BD
:102DC0009C81FC01E20FF31F8081882339F70F906B
:102DD0000F900F900F90CF91DF910895DF93CF93D5
:102DE00000D000D0CDB7DEB79C838B838B819C81D4
:102DF000009721F480E30E94B61345C081E090E083
:102E00009A83898322C089819A819C01220F331F72
:102E1000C901880F991F880F991FF901E80FF91F41
:102E20008B819C812AE030E0B9010E9496208E0FB0
:102E30009F1F9A8389838B819C812AE030E0B901AE
:102E40000E949620CB019C838B838B819C81009771
:102E5000D1F614C089819A812AE030E0B9010E943C
:102E60009620805D0E94B61389819A812AE030E025
:102E7000B9010E949620CB019A83898389819A8126
:102E80008130910539F70F900F900F900F90CF91EF
:102E9000DF910895DF93CF93CDB7DEB763970FB679
:102EA000F894DEBF0FBECDBF888B698B8889282F31
:102EB00030E03B8B2A8B8A899B898130910531F0E8
:102EC0002A893B892230310529F007C08989815040
:102ED0008F8703C08989815C8F878F8580688F8702
:102EE0008F850E94181380E090E0A0E8BFE38B87F5
:102EF0009C87AD87BE876B857C858D859E8520E010
:102F000030E04AEF54E40E947609DC01CB018F8364
:102F10009887A987BA876F81788589859A8520E007
:102F200030E040E85FE30E94D00A88232CF481E07F
:102F300090E09E838D833FC06F81788589859A85D7
:102F400020E03FEF4FE757E40E94700A18164CF557
:102F50006B857C858D859E8520E030E040E251E4E4
:102F60000E947609DC01CB01BC01CD010E94A007C3
:102F7000DC01CB019E838D830FC088EC90E09C83A5
:102F80008B838B819C810197F1F79C838B838D814F
:102F90009E8101979E838D838D819E81009769F725
:102FA00014C06F81788589859A850E94A007DC010D
:102FB000CB019E838D838D819E819A8389838981B4
:102FC0009A810197F1F79A83898363960FB6F894F3
:102FD000DEBF0FBECDBFCF91DF910895DF93CF93BA
:102FE00000D000D00F92CDB7DEB78B837D836C838A
:102FF0008B81882F90E0880F991F880F991F880F69
:10300000991F8B838B8180648B838B810E94181323
:103010001A8219820FC029813A818C819D81FC011D
:10302000E20FF31F80810E94B61389819A81019675
:103030009A83898389819A818830910564F381E03C
:1030400061E00E944A170F900F900F900F900F9021
:10305000CF91DF910895DF93CF93CDB7DEB7A197DE
:103060000FB6F894DEBF0FBECDBF8F8F68A349A304
:1030700081E068A10E944A178F8D0E94B61380E0FC
:1030800090E0A6E9B3E4898F9A8FAB8FBC8F698DEE
:103090007A8D8B8D9C8D20E030E04AEF54E40E94C5
:1030A0007609DC01CB018D8B9E8BAF8BB88F6D8940
:1030B0007E898F89988D20E030E040E85FE30E94B0
:1030C000D00A88232CF481E090E09C8B8B8B3FC04E
:1030D0006D897E898F89988D20E03FEF4FE757E417
:1030E0000E94700A18164CF5698D7A8D8B8D9C8D17
:1030F00020E030E040E251E40E947609DC01CB019F
:10310000BC01CD010E94A007DC01CB019C8B8B8B05
:103110000FC088EC90E09A8B898B89899A890197F6
:10312000F1F79A8B898B8B899C8901979C8B8B8B70
:103130008B899C89009769F714C06D897E898F8976
:10314000988D0E94A007DC01CB019C8B8B8B8B8917
:103150009C89988B8F878F8598890197F1F7988B39
:103160008F8788A1882F90E09E8F8D8F89C09D8D3D
:1031700081E0692F0E944A1780E20E94B6138D8D6C
:10318000982F9F5F81E0692F0E944A178F8D0E94C0
:10319000B61380E090E0A6E9B3E48B879C87AD8707
:1031A000BE876B857C858D859E8520E030E04AEF6B
:1031B00054E40E947609DC01CB018F839887A987AC
:1031C000BA876F81788589859A8520E030E040E86C
:1031D0005FE30E94D00A88232CF481E090E09E8374
:1031E0008D833FC06F81788589859A8520E03FEF88
:1031F0004FE757E40E94700A18164CF56B857C85E2
:103200008D859E8520E030E040E251E40E94760901
:10321000DC01CB01BC01CD010E94A007DC01CB0188
:103220009E838D830FC088EC90E09C838B838B8181
:103230009C810197F1F79C838B838D819E810197FF
:103240009E838D838D819E81009769F714C06F8165
:10325000788589859A850E94A007DC01CB019E8331
:103260008D838D819E819A83898389819A8101973B
:10327000F1F79A8389838D8D9E8D01969E8F8D8F18
:1032800089A1282F30E08D8D9E8D821793070CF435
:103290006ECF81E069A10E944A1780E20E94B613B6
:1032A000A1960FB6F894DEBF0FBECDBFCF91DF91D0
:1032B0000895DF93CF93CDB7DEB7EDE2F0E080E184
:1032C0008083ADE2B0E0EDE2F0E080818C93AEE28D
:1032D000B0E0EEE2F0E080818E7F8C93ADE2B0E072
:1032E000EDE2F0E0808180648C93CF91DF910895CE
:1032F000DF93CF930F92CDB7DEB78983EFE2F0E093
:1033000089818083EEE2F0E080818823DCF7EFE2C0
:10331000F0E080810F90CF91DF910895DF93CF93FC
:10332000CDB7DEB7A3E5B0E0E3E5F0E08081877FCD
:103330008C93A3E5B0E0E3E5F0E080818F7B8C9394
:10334000A3E5B0E0E3E5F0E080818F7C8C93A3E51A
:10335000B0E0E3E5F0E080818C93A9E5B0E0E9E539
:10336000F0E0808181608C93A3E5B0E0E3E5F0E0DC
:103370008081887F8C93A3E5B0E0E3E5F0E0808175
:1033800081608C93CF91DF910895DF93CF930F925B
:10339000CDB7DEB78983E2E5F0E0898180830F90C5
:1033A000CF91DF910895DF93CF9300D0CDB7DEB7F3
:1033B0009A83898389819A81009731F089819A81E2
:1033C00090936B0080936A000F900F90CF91DF91E4
:1033D0000895DF93CF9300D0CDB7DEB79A8389836A
:1033E00089819A81009731F089819A8190936D004B
:1033F00080936C000F900F90CF91DF910895DF9331
:10340000CF930F92CDB7DEB78983ECE5F0E08981E9
:1034100080830F90CF91DF910895DF93CF93CDB745
:10342000DEB7A3E5B0E0E3E5F0E08081887F8C9330
:10343000CF91DF9108951F920F920FB60F92112432
:103440002F933F934F935F936F937F938F939F93AC
:10345000AF93BF93EF93FF93DF93CF93CDB7DEB7D7
:1034600080916A0090916B00009729F0E0916A00CA
:10347000F0916B000995CF91DF91FF91EF91BF9192
:10348000AF919F918F917F916F915F914F913F91FC
:103490002F910F900FBE0F901F9018951F920F92B3
:1034A0000FB60F9211242F933F934F935F936F9317
:1034B0007F938F939F93AF93BF93EF93FF93DF938C
:1034C000CF93CDB7DEB780916C0090916D000097DF
:1034D00029F0E0916C00F0916D000995CF91DF919A
:1034E000FF91EF91BF91AF919F918F917F916F91DC
:1034F0005F914F913F912F910F900FBE0F901F90B2
:103500001895DF93CF930F92CDB7DEB7898389816A
:10351000882341F4AEE4B0E0EEE4F0E080818F7BFC
:103520008C9307C0AEE4B0E0EEE4F0E0808180640C
:103530008C930F90CF91DF910895DF93CF9300D0BC
:10354000CDB7DEB7E6E4F0E0808191819A8389838C
:10355000A8E5B0E0E8E5F0E0808180628C938981A5
:103560009A810F900F90CF91DF910895DF93CF93C1
:10357000CDB7DEB7AFE4B0E0EFE4F0E080818F7369
:103580008C93AFE4B0E0EFE4F0E080818F7C8C932B
:10359000AFE4B0E0EFE4F0E0808180688C93AFE4CA
:1035A000B0E0EFE4F0E0808180618C93AFE4B0E0C4
:1035B000EFE4F0E080818C7F8C93AFE4B0E0EFE447
:1035C000F0E0808181608C93AEE4B0E0EEE4F0E066
:1035D0008081877E8C93AEE4B0E0EEE4F0E0808101
:1035E00088608C93EAE4F0E011821082E8E4F0E075
:1035F00011821082E6E4F0E011821082A9E5B0E0C9
:10360000E9E5F0E080818F7D8C93A9E5B0E0E9E504
:10361000F0E080818F7E8C93A9E5B0E0E9E5F0E0F1
:103620008081877F8C93A9E5B0E0E9E5F0E08081B7
:1036300084608C93AEE4B0E0EEE4F0E08081887FBB
:103640008C93AEE4B0E0EEE4F0E0808181608C9396
:10365000CF91DF910895DF93CF93CDB7DEB7AEE47E
:10366000B0E0EEE4F0E080818B7F8C93AEE4B0E0DC
:10367000EEE4F0E080818D7F8C93AEE4B0E0EEE488
:10368000F0E080818E7F8C93CF91DF910895DF935E
:10369000CF9300D0CDB7DEB79A838983E6E4F0E01C
:1036A00089819A81918380830F900F90CF91DF91D0
:1036B0000895DF93CF9300D0CDB7DEB79A83898387
:1036C000EAE4F0E089819A81918380830F900F90E2
:1036D000CF91DF910895DF93CF9300D0CDB7DEB7C0
:1036E0009A83898389819A81009731F089819A81AF
:1036F00090936F0080936E000F900F90CF91DF91A9
:1037000008951F920F920FB60F9211242F933F939B
:103710004F935F936F937F938F939F93AF93BF93D9
:10372000EF93FF93DF93CF93CDB7DEB780916E0019
:1037300090916F00009729F0E0916E00F0916F007A
:103740000995CF91DF91FF91EF91BF91AF919F913B
:103750008F917F916F915F914F913F912F910F903A
:103760000FBE0F901F901895DF93CF930F92CDB798
:10377000DEB78983A6E5B0E0E6E5F0E0808180640D
:103780008C93E0E2F0E08CE08083A1E2B0E0E1E243
:10379000F0E080818E7F8C93A1E2B0E0E1E2F0E086
:1037A00080818D7F8C938981882329F0E2E2F0E08B
:1037B0008981880F8083A6E5B0E0E6E5F0E08081AE
:1037C00084608C930F90CF91DF910895DF93CF9316
:1037D0000F92CDB7DEB78983E2E2F0E08981880FEE
:1037E0008083A6E5B0E0E6E5F0E0808180648C931C
:1037F000A6E5B0E0E6E5F0E0808184608C930F9070
:10380000CF91DF910895DF93CF930F92CDB7DEB7BD
:1038100081E08983A6E5B0E0E6E5F0E080818062A2
:103820008C93A6E5B0E0E6E5F0E0808180688C93BB
:10383000E6E5F0E080818823DCF7E1E2F0E08081DA
:10384000882F90E0887F90708830910511F083E098
:10385000898389810F90CF91DF910895DF93CF9372
:103860000F92CDB7DEB781E08983A6E5B0E0E6E54B
:10387000F0E0808180628C93A6E5B0E0E6E5F0E0C0
:10388000808180688C93E6E5F0E080818823DCF716
:10389000E1E2F0E08081882F90E0887F90708031B5
:1038A000910511F084E0898389810F90CF91DF9198
:1038B0000895DF93CF9300D0CDB7DEB78A8381E040
:1038C0008983E3E2F0E08A81880F8083A3E2B0E09D
:1038D000E3E2F0E080818E7F8C93A6E5B0E0E6E540
:1038E000F0E080818F7D8C93A6E5B0E0E6E5F0E026
:1038F000808180688C93E6E5F0E080818823DCF7A6
:10390000E1E2F0E08081882F90E0887F907088313C
:10391000910511F085E0898389810F900F90CF91F7
:10392000DF910895DF93CF9300D0CDB7DEB78A83C0
:1039300081E08983E3E2F0E08A81880F8083A3E25B
:10394000B0E0E3E2F0E0808181608C93A6E5B0E036
:10395000E6E5F0E080818F7D8C93A6E5B0E0E6E5BA
:10396000F0E0808180688C93E6E5F0E08081882338
:10397000DCF7E1E2F0E08081882F90E0887F9070B2
:103980008034910511F086E0898389810F900F9032
:10399000CF91DF910895DF93CF9300D0CDB7DEB7FD
:1039A0008A8381E08983E3E2F0E08A818083A6E56F
:1039B000B0E0E6E5F0E0808180688C93E6E5F0E039
:1039C00080818823DCF7E1E2F0E08081882F90E0BD
:1039D000887F90708832910511F087E08983898112
:1039E0000F900F90CF91DF910895DF93CF9300D088
:1039F0000F92CDB7DEB79B838A8381E08983A6E5EA
:103A0000B0E0E6E5F0E0808180688C93E6E5F0E0E8
:103A100080818823DCF7E1E2F0E08081882F90E06C
:103A2000887F90708035910519F088E0898306C001
:103A3000E3E2F0E08081EA81FB81808389810F905D
:103A40000F900F90CF91DF910895DF93CF93CDB773
:103A5000DEB7A6E5B0E0E6E5F0E0808180618C931A
:103A6000A6E5B0E0E6E5F0E0808180688C93CF9138
:103A7000DF910895DF93CF93CDB7DEB7CD54D0401B
:103A80000FB6F894DEBF0FBECDBF8AE0FE01FA96F6
:103A9000DF01282F1D922A95E9F7CE018C5B9F4FFD
:103AA0002AE0FC01DF01822F1D928A95E9F719AE09
:103AB0000E94230E0E94FC120E9454140E94FA0CD1
:103AC00080E00E94B41B80E00E94390D9BAF8AAF5A
:103AD0008AAD9BADCC01A0E0B0E028E833E140E046
:103AE00050E0BC01CD010E947720DC01CB01072E04
:103AF0007AE0B695A795979587957A95D1F7702D29
:103B0000FE01EC5BFF4F9183808380E090E0A8ECA6
:103B1000B2E48DAB9EABAFABB8AF6DA97EA98FA958
:103B200098AD20E030E04AEF54E40E947609DC01D1
:103B3000CB0189AB9AABABABBCAB69A97AA98BA91A
:103B40009CA920E030E040E85FE30E94D00A88238F
:103B50002CF481E090E098AB8FA73FC069A97AA9C7
:103B60008BA99CA920E03FEF4FE757E40E94700A21
:103B700018164CF56DA97EA98FA998AD20E030E00C
:103B800040E251E40E947609DC01CB01BC01CD0189
:103B90000E94A007DC01CB0198AB8FA70FC088EC77
:103BA00090E09EA78DA78DA59EA50197F1F79EA7F2
:103BB0008DA78FA598A9019798AB8FA78FA598A9D6
:103BC000009769F714C069A97AA98BA99CA90E94DA
:103BD000A007DC01CB0198AB8FA78FA598A99CA764
:103BE0008BA78BA59CA50197F1F79CA78BA781E0DC
:103BF0000E94390D9DAF8CAF8CAD9DADCC01A0E086
:103C0000B0E028E833E140E050E0BC01CD010E9483
:103C10007720DC01CB01072E7AE0B695A795979522
:103C200087957A95D1F7702DFE01EC5BFF4F93835A
:103C3000828380E090E0A8ECB2E48FA398A7A9A7C4
:103C4000BAA76FA178A589A59AA520E030E04AEF30
:103C500054E40E947609DC01CB018BA39CA3ADA3A5
:103C6000BEA36BA17CA18DA19EA120E030E040E825
:103C70005FE30E94D00A88232CF481E090E09AA3AD
:103C800089A33FC06BA17CA18DA19EA120E03FEF45
:103C90004FE757E40E94700A18164CF56FA178A5FB
:103CA00089A59AA520E030E040E251E40E9476091F
:103CB000DC01CB01BC01CD010E94A007DC01CB01DE
:103CC0009AA389A30FC088EC90E098A38F8F8F8D63
:103CD00098A10197F1F798A38F8F89A19AA10197D5
:103CE0009AA389A389A19AA1009769F714C06BA12F
:103CF0007CA18DA19EA10E94A007DC01CB019AA30B
:103D000089A389A19AA19E8F8D8F8D8D9E8D0197FC
:103D1000F1F79E8F8D8F82E00E94390D9FAF8EAF9D
:103D20008EAD9FADCC01A0E0B0E028E833E140E0EB
:103D300050E0BC01CD010E947720DC01CB01072EB1
:103D40007AE0B695A795979587957A95D1F7702DD6
:103D5000FE01EC5BFF4F9583848380E090E0A8EC4C
:103D6000B2E4898F9A8FAB8FBC8F698D7A8D8B8DE2
:103D70009C8D20E030E04AEF54E40E947609DC019B
:103D8000CB018D8B9E8BAF8BB88F6D897E898F8990
:103D9000988D20E030E040E85FE30E94D00A88235D
:103DA0002CF481E090E09C8B8B8B3FC06D897E89E9
:103DB0008F89988D20E03FEF4FE757E40E94700A0B
:103DC00018164CF5698D7A8D8B8D9C8D20E030E036
:103DD00040E251E40E947609DC01CB01BC01CD0137
:103DE0000E94A007DC01CB019C8B8B8B0FC088EC61
:103DF00090E09A8B898B89899A890197F1F79A8B40
:103E0000898B8B899C8901979C8B8B8B8B899C8957
:103E1000009769F714C06D897E898F89988D0E94FB
:103E2000A007DC01CB019C8B8B8B8B899C89988BA9
:103E30008F878F8598890197F1F7988B8F870E94DC
:103E4000FA0C83E00E94390DFE01E05CFF4F918384
:103E50008083FE01E05CFF4F80819181CC01A0E076
:103E6000B0E028E833E140E050E0BC01CD010E9421
:103E70007720DC01CB01072E7AE0B695A7959795C0
:103E800087957A95D1F7702DFE01EC5BFF4F9783F4
:103E9000868380E090E0A8ECB2E48B879C87AD87B6
:103EA000BE876B857C858D859E8520E030E04AEF5E
:103EB00054E40E947609DC01CB018F839887A9879F
:103EC000BA876F81788589859A8520E030E040E85F
:103ED0005FE30E94D00A88232CF481E090E09E8367
:103EE0008D833FC06F81788589859A8520E03FEF7B
:103EF0004FE757E40E94700A18164CF56B857C85D5
:103F00008D859E8520E030E040E251E40E947609F4
:103F1000DC01CB01BC01CD010E94A007DC01CB017B
:103F20009E838D830FC088EC90E09C838B838B8174
:103F30009C810197F1F79C838B838D819E810197F2
:103F40009E838D838D819E81009769F714C06F8158
:103F5000788589859A850E94A007DC01CB019E8324
:103F60008D838D819E819A83898389819A8101972E
:103F7000F1F79A83898384E00E94390DFE01EE5B9C
:103F8000FF4F91838083FE01EE5BFF4F8081918123
:103F9000CC01A0E0B0E028E833E140E050E0BC0113
:103FA000CD010E947720DC01CB01072E7AE0B69587
:103FB000A795979587957A95D1F7702DFE01EC5BC3
:103FC000FF4F918780878AAD9BADA5E08C3D9A0716
:103FD00008F444C08AAD9BADB5E089379B0708F073
:103FE0003DC08CAD9DAD24E08C349207B8F18CAD12
:103FF0009DADA3E0893E9A0788F58EAD9FADB8E0F0
:1040000082309B0758F18EAD9FAD27E08F39920724
:1040100028F5FE01E05CFF4F80819181A2E08C3B9E
:104020009A07E0F0FE01E05CFF4F80819181B2E0F1
:1040300089359B0798F4FE01EE5BFF4F80819181EB
:1040400023E08438920750F0FE01EE5BFF4F808141
:104050009181A3E081329A0708F435CD80E066E0D3
:1040600041E00E94480E8CE390E20E94D3190E9426
:10407000B61A0E948E1927CDDF93CF93CDB7DEB746
:10408000809171008F5F8093710080917100843006
:10409000C9F480917200909173000E94D1128093B4
:1040A000700080917000882F90E00E94591B8091D1
:1040B0007200909173000196909373008093720048
:1040C00010927100809172009091730026E1803A05
:1040D000920750F010927300109272000E942B1BF6
:1040E00089E190E00E94EE16CF91DF910895629FE2
:1040F000D001739FF001829FE00DF11D649FE00DE0
:10410000F11D929FF00D839FF00D749FF00D659F40
:10411000F00D9927729FB00DE11DF91F639FB00D3F
:10412000E11DF91FBD01CF0111240895AA1BBB1B7E
:1041300051E107C0AA1FBB1FA617B70710F0A61BA7
:10414000B70B881F991F5A95A9F780959095BC01C8
:10415000CD0108952F923F924F925F926F927F927E
:104160008F929F92AF92BF92CF92DF92EF92FF9287
:104170000F931F93CF93DF93CDB7DEB7CA1BDB0B33
:104180000FB6F894DEBF0FBECDBF09942A883988D8
:1041900048885F846E847D848C849B84AA84B984DF
:1041A000C884DF80EE80FD800C811B81AA81B981EB
:1041B000CE0FD11D0FB6F894DEBF0FBECDBFED01FF
:0641C0000895F894FFCF02
:0841C6000000000000000000F1
:00000001FF
